:020000040800F2
:1000000000280020390100083501000835010008EA
:100010003501000835010008350100080000000026
:100020000000000000000000000000003501000892
:100030003501000800000000350100083501000806
:1000400035010008350100083501000835010008B8
:1000500035010008350100083501000835010008A8
:100060003501000835010008350100083501000898
:100070003501000835010008350100083501000888
:100080003501000835010008350100083501000878
:100090003501000835010008350100083501000868
:1000A0003501000835010008350100083501000858
:1000B00085010008350100083501000835010008F8
:1000C0003501000835010008350100083501000838
:1000D00035010008750100083501000835010008E8
:1000E0003501000835010008350100083501000818
:1000F0003501000835010008350100083501000808
:1001000035010008350100083501000835010008F7
:1001100035010008350100083501000835010008E7
:1001200035010008350100083501000835010008D7
:1001300035010008FEE70000094A0A4B0A498B42D4
:1001400006D30021094B0A4A934206D300F074B843
:1001500052F8040F43F8040BF1E743F8041BF3E7EC
:10016000DC05000800000020000000200000002046
:100170001C000020024A9388DBB201339380704751
:10018000003801404FF08042138ADB070AD5138AFA
:1001900023F001031B041B0C1382034A1388013351
:1001A0009BB21380704700BF00000020094A10B5C1
:1001B000114613899C07FCD54FF48014064B1C6133
:1001C00090810A89D207FCD5102288891A6180B2F1
:1001D00010BD00BF003001400008014010B54FF4D1
:1001E0000060FFF7E3FF134C20804FF4E060FFF75F
:1001F000DDFF20804FF4C060FFF7D8FF20804FF470
:10020000A060FFF7D3FF20804FF48060FFF7CEFFA0
:1002100020804FF44070FFF7C9FF20804FF400703A
:10022000FFF7C4FF20804FF48070FFF7BFFF2080EE
:1002300010BD00BF0C0000201222A74B80B51A6031
:10024000A3F580535A685A605A6842F480625A6033
:100250005A685A605A6842F002025A605A6842F478
:10026000E0125A605A6842F480325A601A6842F4C6
:1002700080321A601A689503FCD51A6842F08072C1
:100280001A601A689401FCD55A6802F00C02082A18
:10029000FAD100249149924E0A6841F64C5042F03E
:1002A00080720A608F4934600A688F4D42F0010203
:1002B0000A601C229A619A69F02742F001029A6151
:1002C0008A4A116821F003011160116821F03001A0
:1002D0001160116821F00C011160116821F0C0015A
:1002E0001160116821F440311160116841F48031CE
:1002F0001160116821F440211160116821F440114E
:100300001160116841F480111160116821F44001FD
:100310001160116841F440011160116821F04051F1
:100320001160116841F080511160116821F0404165
:100330001160116841F040411160516821F47F6102
:100340005160516841F492615160696821F4401133
:100350006960696841F440116960696821F440018D
:100360006960996941F4804199616149088142F26B
:100370000C00888120205F494860996941F48051D0
:1003800099615D49088880B240F03800088008888B
:1003900020F002000004000C0880088820F0010012
:1003A0000004000C0880088880B240F400600880D7
:1003B000088820F080000004000C0880088880B2C3
:1003C00040F440700880088880B240F00400088043
:1003D000088880B240F040000880596841F44041EC
:1003E0005960996941F400719961D96841F40071CB
:1003F000D960D96821F40071D9604049486820F477
:1004000070204860486820F480704860886820F058
:1004100002008860886840F4F0108860086940F045
:1004200007000861886840F001008860886840F033
:100430000800886032480760346037680468A74263
:10044000FBD388680007FCD4886840F0040088600B
:100450002A498F6817F00407FBD1D969294C41F468
:100460000011D9619969DFF8A48041F00801996110
:100470002549086820F07F400860086840F008407F
:100480000860C86840F0C000C86021884FF0805004
:1004900021F001010904090C2180A18889B241F0F1
:1004A0002401A180B421A18325212184218889B23E
:1004B00041F001012180D96941F00101D9614FF07A
:1004C0008043198921F007010904090C198140F2C0
:1004D000CF2119851CE000BF00200240FCED00E0A8
:1004E000041000E0001000E000100140000801408E
:1004F0000038014000E100E00030014000240140EC
:100500000400002000540040000C01400C000020BA
:100510004CF24F319985998989B241F00101998155
:100520002C4908600121198010234FF47060136179
:10053000FFF73CFEA8F8000040F60140FFF736FE4A
:10054000A8F8000040F60F20FFF730FEA8F80000E2
:1005500040F60730FFF72AFEA8F800004FF41060BD
:10056000FFF724FEA8F80000FFF738FE1A492246DC
:100570008C464FF0A10E40F204481848EB6883F413
:100580000053EB6008603760D6F80090DCF800306C
:100590009945F9D323889BB243F480732380938ACF
:1005A000DB07FCD5938A1B06FCD5A2F810E0A38AD2
:1005B00018EA030FFBD023889BB243F480632380A7
:1005C00023889BB243F40073238023889B05FCD4CB
:1005D000D4E700BF00E100E008000020001BB700E6
:0400000508000139B5
:00000001FF
