:020000040800F2
:1000000000280020390100083501000835010008EA
:100010003501000835010008350100080000000026
:100020000000000000000000000000003501000892
:100030003501000800000000350100083501000806
:1000400035010008350100083501000835010008B8
:1000500035010008350100083501000835010008A8
:100060003501000835010008350100083501000898
:100070003501000835010008350100083501000888
:100080003501000835010008350100083501000878
:100090003501000835010008350100083501000868
:1000A0003501000835010008350100083501000858
:1000B0007D020008350100083501000835010008FF
:1000C0003501000835010008350100083501000838
:1000D000350100080D02000845020008350100083E
:1000E0003501000835010008350100083501000818
:1000F0003501000835010008350100083501000808
:1001000035010008350100083501000835010008F7
:1001100035010008350100083501000835010008E7
:1001200035010008350100083501000835010008D7
:1001300035010008FEE70000094A0A4B0A498B42D4
:1001400006D30021094B0A4A934206D300F0BAB8FD
:1001500052F8040F43F8040BF1E743F8041BF3E7EC
:100160006C040008000000200000002000000020B7
:10017000D409002010B50E4A13881C06FCD50022B5
:100180000C4B0B4C1A701A788A4205D300230A4A8A
:1001900013700A4A137010BD22881206FCD51A7813
:1001A000D2B2825CA2801A780132D2B21A70EAE727
:1001B000004400400500002006000020020000204E
:1001C00010B50E4A13881C06FCD500220C4B0B4CB4
:1001D0001A701A788A4205D300230A4A13700A4A11
:1001E000137010BD22881206FCD51A78D2B2825C38
:1001F000A2801A780132D2B21A70EAE700380140C0
:10020000050000200400002003000020084B0948DE
:100210009A880378D2B2DBB2591CC9B20170064980
:10022000CA540622054B1A700122054B1A707047FA
:100230000038014006000020FC01002007000020DB
:1002400002000020084B09489A880378D2B2DBB23A
:10025000591CC9B201700649CA540422054B1A70D0
:100260000122054B1A707047004400400400002032
:100270000800002007000020030000204FF080420B
:10028000138ADB070FD5138A23F001031B041B0C11
:100290001382094A138801339BB21380074AD3683B
:1002A00083F40053D360064A13781BB11378013BE3
:1002B000DBB21370704700BF000000200010014047
:1002C00007000020122208B5594B1A60A3F580538D
:1002D0005A685A605A6842F480625A605A685A6092
:1002E0005A6842F002025A605A6842F4E0125A60B8
:1002F0005A6842F480325A601A6842F480321A60B6
:100300001A689103FCD51A6842F080721A601A6864
:100310009201FCD55A6802F00C02082AFAD145492C
:1003200042F20C040A68444842F080720A600021DC
:10033000424A434D11604349434E0A6842F001026C
:100340000A6010229A61414A516821F440115160BB
:10035000516841F440115160516821F440015160ED
:100360009A6942F005029A619A6942F480429A6160
:10037000374A516821F47F615160516841F49261BC
:10038000516040F2712101818481818989B241F0FB
:100390002001818120212F484160D96941F4003139
:1003A000D961116821F47F411160116841F49241D3
:1003B00011604FF49C7228490A818C818A89274CEC
:1003C00092B242F020028A8140224260DA6942F011
:1003D0000102DA614FF080431A8922F00702120409
:1003E000120C1A8140F2CF221A854CF24F329A85B4
:1003F0009A8992B242F001029A814FF080520260D3
:1004000001221A802B78012B05D123781BB9317872
:100410001348FFF7AFFE134B1B78012BF2D1237863
:10042000002BEFD1104B11481978FFF7C9FEE9E70F
:1004300000200240FCED00E000380140041000E024
:1004400002000020001000E0060000200010014023
:100450000008014000E100E00044004007000020E7
:10046000FC01002003000020040000200800002000
:0400000508000139B5
:00000001FF
