:020000040800F2
:1000000000280020390100083501000835010008EA
:100010003501000835010008350100080000000026
:100020000000000000000000000000003501000892
:100030003501000800000000350100083501000806
:1000400035010008350100083501000835010008B8
:1000500035010008350100083501000835010008A8
:100060003501000835010008350100083501000898
:100070003501000835010008350100083501000888
:100080003501000835010008350100083501000878
:100090003501000835010008350100083501000868
:1000A0003501000835010008350100083501000858
:1000B0000902000835010008350100083501000873
:1000C0003501000835010008350100083501000838
:1000D00035010008C50100080502000835010008C7
:1000E0003501000835010008350100083501000818
:1000F0003501000835010008350100083501000808
:1001000035010008350100083501000835010008F7
:1001100035010008350100083501000835010008E7
:1001200035010008350100083501000835010008D7
:1001300035010008FEE70000094A0A4B0A498B42D4
:1001400006D30021094B0A4A934206D300F076B841
:1001500052F8040F43F8040BF1E743F8041BF3E7EC
:10016000A80300080000002000000020000000207C
:100170000C01002030B50E4A13881B06FCD5002266
:100180000C4B0D490D4C0A4D1A7018780A789042A4
:1001900004D900230A4A0B70137030BD1A78D2B20A
:1001A000A25CAA801A780132D2B21A70EDE700BFC1
:1001B000004400400400002003000020050000204F
:1001C000020000200B4910B58B880B48DBB29AB2B5
:1001D0008A800278094CD2B2A3540278212B02F112
:1001E0000102D2B2027004D10122054B1A706923B8
:1001F0008B8010BD00380140030000200500002066
:1002000002000020704700004FF08042138ADB0795
:100210000FD5138A23F001031B041B0C1382054A1C
:10022000138801339BB21380034AD36883F40053CD
:10023000D36070470000002000100140122208B572
:10024000504B1A60A3F580535A685A605A6842F4BA
:1002500080625A605A685A605A6842F002025A60D4
:100260005A6842F4E0125A605A6842F480325A6086
:100270001A6842F480321A601A689103FCD51A6831
:1002800042F080721A601A689201FCD55A6802F036
:100290000C02082AFAD13C4942F20C040A683B4895
:1002A00042F080720A600021394A116039490A68B7
:1002B00042F001020A6010229A61374A516821F423
:1002C00040115160516841F440115160516821F46E
:1002D000400151609A6942F005029A619A6942F4BC
:1002E00080429A612D4A516821F47F6151605168C2
:1002F00041F49261516040F27121018184818189D0
:1003000089B241F020018181202125484160D969CD
:1003100041F40031D961116821F47F411160116805
:1003200041F4924111604FF49C721E490A818C8104
:100330008A891D4C92B242F020028A81402242609A
:10034000DA6942F00102DA614FF080431A8922F043
:1003500007021204120C1A8140F2CF221A854CF2C5
:100360004F329A859A8992B242F001029A814FF0F7
:100370008052026001221A802378012BFCD1FFF702
:10038000F9FEF9E700200240FCED00E000380140F2
:10039000041000E0001000E00010014000080140DF
:0C03A00000E100E00044004002000020EA
:0400000508000139B5
:00000001FF
