:020000040800F2
:1000000000280020390100083501000835010008EA
:100010003501000835010008350100080000000026
:100020000000000000000000000000003501000892
:100030003501000800000000350100083501000806
:1000400035010008350100083501000835010008B8
:1000500035010008350100083501000835010008A8
:100060003501000835010008350100083501000898
:100070003501000835010008350100083501000888
:100080003501000835010008350100083501000878
:100090003501000835010008350100083501000868
:1000A0003501000835010008350100083501000858
:1000B000610A000835010008350100083501000813
:1000C0003501000835010008350100083501000838
:1000D00035010008390200087102000835010008E6
:1000E0003501000835010008350100083501000818
:1000F0003501000835010008350100083501000808
:1001000035010008350100083501000835010008F7
:1001100035010008350100083501000835010008E7
:1001200035010008350100083501000835010008D7
:1001300035010008FEE70000094A0A4B0A498B42D4
:1001400006D30021094B0A4A934206D300F0D4BCDF
:1001500052F8040F43F8040BF1E743F8041BF3E7EC
:10016000780D000800000020DC000020DC000020EA
:100170007407002045F6C05300215843044A054B3C
:1001800018601160106819688842FBD3704700BF7F
:10019000041000E0E4000020002213B50E4B8DF89F
:1001A00007100E491A701C789DF80720944206D358
:1001B00000230B4A13700B4A137002B010BD0A885B
:1001C0001206FCD51A78D2B2825C8A801A78013283
:1001D000D2B21A70E7E700BFE200002000440040FE
:1001E000E8000020DE000020002213B50E4B8DF841
:1001F00007100E491A701C789DF80720944206D308
:1002000000230B4A13700B4A137002B010BD0A880A
:100210001206FCD51A78D2B2825C8A801A78013232
:10022000D2B21A70E7E700BFE200002000380140B8
:10023000E0000020DF000020084B09489A8803787E
:10024000D2B2DBB2591CC9B201700649CA5412229B
:10025000054B1A700122054B1A7070470038014097
:10026000E80000208C030020E9000020DE000020D0
:10027000084B09489A880378D2B2DBB2591CC9B23C
:1002800001700649CA540422054B1A700122054B1D
:100290001A70704700440040E0000020EE0000208B
:1002A000E9000020DF000020302370B531261B4814
:1002B0001B4D1C4C0E210373FFF796FF41F2883053
:1002C000FFF758FF29782046FFF766FF16480D21F3
:1002D000C672FFF789FF41F28830FFF74BFF29789C
:1002E0002046FFF759FF11480D21C672FFF77CFF2A
:1002F00041F28830FFF73EFF29782046FFF74CFF98
:100300000B210B48FFF770FF41F28830FFF732FFF7
:1003100029782046BDE87040FFF73EBF7C000020F2
:10032000E80000208C0300205A000020C2000020BA
:10033000CF0000202DE9F7430122324B8DF8071042
:100340001A700022074698462F4C304E22702278B1
:100350009DF807309A4205D3002388F8003003B097
:10036000BDE8F0832378DBB2FB5C2B2B04D0237831
:100370000133DBB22370EAE70023254DDFF89890C4
:100380002B702378DBB2FA5C2B78DBB219F80330E0
:100390009A42ECD123780133DBB223702B780133FE
:1003A000DBB22B702B78062BEBD12378DBB2FB5C16
:1003B0002C2B237803F10103DBB22370F5D1082342
:1003C000144A33702378DBB2FB5CDBB20D2B09D10E
:1003D00031781048C9B2535431780131C9B2FFF7AE
:1003E00003FFCEE733782178DBB2C9B2795CC9B2BA
:1003F000D15423780133DBB2237033780133DBB27D
:100400003370DFE7E1000020E2000020ED00002073
:10041000EC000020900000208A000020002273B52C
:10042000344B354D354C364E8DF807102A702270FE
:100430001A701A780B2A21D9222373750D23B375EC
:1004400000232F4817212370FFF7CEFE32222D4BB9
:100450002D481A702A7812B90278002AFAD11A782F
:1004600002F0FF01002AF5D12B789BB9274B1A889F
:100470001006FCD5452200209A802FE01A781978C2
:100480000932C9B2415CC9B2B1541A780132D2B250
:100490001A70CEE71E4B1F481970197822789142C6
:1004A0001ED321781B48FFF777FE184B1A881206D7
:1004B000FCD5DFE79DF807101748FFF795FE41F2DE
:1004C0008830FFF757FE1A22144B9A80A3F5744325
:1004D0001A881106FCD5532201209A8002B070BD03
:1004E0001A78D2B2825C3E2AE4D01A780132D2B2B3
:1004F0001A70D2E7E2000020DE000020E8000020B1
:100500009E000020EA000020E90000200044004096
:10051000EC0000208C030020E202002000380140A3
:10052000F7B58DF807108DF8063000232349244DC8
:10053000244C0B702B7023701423234E27789DF8C6
:1005400007108F4203F1010122D32220F0542C2006
:10055000C9B2705400210233DBB2217020789DF8BB
:100560000610884203F101011DD30D22F25400232D
:10057000C9B215482B70FFF737FE42F21070FFF733
:10058000F9FD2978114803B0BDE8F040FFF704BE3B
:100590002778FFB2C75DFFB2F75423780133DBB28F
:1005A0002370CBB2CAE72078C0B2105CC0B2F0545E
:1005B00023780133DBB22370CBB2CFE7DE0000201B
:1005C000E8000020E2000020280000208C0300202A
:1005D00037B58DF807108DF806309DF807109DF897
:1005E0000630FFF79DFF0D212E48FFF7FDFD00218E
:1005F0000A202D4B2D4A197011702D492D4D087070
:10060000187810B928780028FAD1087800F0FF048B
:100610000028F5D11B786BB9274B1A4619880906B3
:10062000FCD54521998013881D06FCD50D239380A8
:1006300003B030BD214B1C70214C187811788842D2
:1006400026D311781E48FFF7A7FD1B4B1A461988C1
:100650000906FCD54521998013881B06FCD5E5E7E2
:100660009DF818101748FFF7BFFD41F28830FFF7DB
:1006700081FD1A22144B9A80A3F574431A461988F7
:100680000C06FCD55321998013881806FCD5CDE7BC
:100690001978C9B2615C3E29E2D019780131C9B23A
:1006A0001970CAE7B5000020DE000020E800002035
:1006B000EB000020E900002000440040EC00002096
:1006C0008C030020E20200200038014000220E4B83
:1006D0000E4910B41A701A780B2A08D93B23CB7331
:1006E0000D230B740948112110BCFFF77DBD1A784A
:1006F0001C780332E4B2045DE4B28C541A780132FF
:10070000D2B21A70E7E700BFE200002067000020C5
:100710000F2182B08DF807009DF807300248DBB248
:10072000437302B0FFF760BD00000020002230B527
:100730009B4B93B08DF80F109A491A701A78D2B269
:10074000845C1A78D2B28A5C944202D11A78022A66
:1007500029D9002294491A701A78D2B2845C1A7886
:10076000D2B28A5C944202D11A78022A7ED98F4989
:100770001A78D2B2845C1A78D2B28A5C944203D1DD
:100780001A78032A40F21E8189491A78D2B2845C11
:100790001A78D2B28A5C944203D11A78082A40F2BD
:1007A0003E8100203CE01A780132D2B21A701A78E9
:1007B000032AC3D100217F4A1170CAB2845C6E2C17
:1007C00004D09DF80F400131A242F6D3002102323D
:1007D000D2B2197019780C2924D9815C6D2903D003
:1007E0009DF80F108A422BD39DF80F100232D2B21F
:1007F000891AC9B28DF813109DF81310AA292ED8A2
:1008000000216D4D19709DF80F108A421BD39DF881
:10081000131008A8FFF702FE00220120674B1A7090
:1008200013B030BD1978845C12AD2944E4B201F8EC
:10083000284C197801320131C9B21970D2B2C9E716
:100840000132D2B2C9E71978845CC9B2E4B26C54FF
:10085000197801320131C9B21970D2B2D3E7584BBD
:100860001A881106FCD545229A80D5E71A780132FC
:10087000D2B21A701A78032A7FF46EAF00224D4963
:100880000A708DF814208DF81520D1B2445C692CC3
:1008900004D09DF80F400132A142F6D3CA1C0021BA
:1008A000D2B21970815C84182C2902D019780E29D3
:1008B00037D9815C702903D09DF80F108A4244D348
:1008C00000210232D2B21970815C84182C2902D026
:1008D000197804293CD9815C6D2903D09DF80F104B
:1008E0008A4249D39DF80F100232D2B2891AC9B296
:1008F0008DF816109DF81610AA294CD800212E4DFF
:1009000019709DF80F108A4239D39DF814109DF884
:1009100015309DF816200EA8009206AAFFF758FE83
:100920007AE71978247812AD2944E4B201F8104C22
:10093000197801320131C9B219709DF81410D2B280
:100940000131C9B28DF81410ACE70132D2B2B0E770
:100950001978247812AD2944E4B201F8304C1978A2
:1009600001320131C9B219709DF81510D2B20131AE
:10097000C9B28DF81510A7E70132D2B2ABE71978EA
:10098000845CC9B2E4B26C54197801320131C9B245
:100990001970D2B2B5E70A4B1A881206FCD562E785
:1009A000E200002018000020250000207800002030
:1009B0000F000020DF000020E2020020E000002005
:1009C000004400401A780132D2B21A701A78042A10
:1009D0007FF4CEAE0021214A1170CAB2845C6E2C25
:1009E00004D09DF80F400131A242F6D3002102321B
:1009F000D2B2197019780C2903D90BA8FFF766FE3B
:100A00000AE71978845C12AD2944E4B201F81C4C61
:100A1000197801320131C9B21970D2B2EAE71A78F5
:100A20000132D2B21A701A78092A7FF4AEAE0022CF
:100A30000A4B1A70D3B2C15C2C2904D09DF80F1058
:100A400001328B42F6D30133DBB2C35CDBB28DF8EB
:100A500017309DF81700FFF75BFEDDE6DF00002092
:100A60004FF08042138ADB070FD5138A23F001036E
:100A70001B041B0C1382174A138801339BB213808B
:100A8000154AD36883F40053D360144B1A781AB113
:100A90001A78013AD2B21A7011490A781AB10A7852
:100AA000013AD2B20A700F490A781AB10A78013AAB
:100AB000D2B20A700C4A1278012A0AD10B4A127873
:100AC000012A06D11B7823B9094B0A481978FFF788
:100AD00063BB7047DC00002000100140E9000020EB
:100AE000EA000020EB000020E1000020DE000020F2
:100AF000E80000208C03002012228A4B83B51A6084
:100B0000A3F580535A685A605A6842F480625A606A
:100B10005A685A605A6842F002025A605A6842F4AF
:100B2000E0125A605A6842F480325A601A6842F4FD
:100B300080321A601A689103FCD51A6842F08072FC
:100B40001A601A689201FCD55A6802F00C02082A51
:100B5000FAD17549754C0A6842F20C0542F0807270
:100B60000A600021724A734811607349DFF80082FD
:100B70000A68724E42F001020A609A69704F42F0B0
:100B800010029A616F4A516821F440115160516816
:100B900041F440115160516821F4400151609A695B
:100BA00042F008029A61226822F440122260226810
:100BB00042F440122260226822F44002226022683D
:100BC00022F040722260226842F040722260226865
:100BD00022F0406222609A6942F005029A619A69A5
:100BE00042F480429A61584A516821F47F61516011
:100BF000516841F49261516040F271210181858117
:100C0000818989B241F02001818120214F484160D2
:100C1000D96941F40031D961116821F47F41116033
:100C2000116841F4924111604FF49C7248490A8165
:100C30008D818A8992B242F020028A8140224260EC
:100C4000DA6942F00102DA614FF080431A8922F03A
:100C500007021204120C1A8140F2CF221A854CF2BC
:100C60004F329A859A8992B242F001029A814FF0EE
:100C700080520260012241F288301A80FFF77AFA2E
:100C800023694FF47A7043F020032361FFF772FA6F
:100C90006369304843F0200363612F4CFFF76AFA21
:100CA00021782748FFF778FA31232C480A2103726C
:100CB000FFF79AFA41F28830FFF75CFA2178204872
:100CC000FFF76AFAFFF7F0FA254B072118689A88B0
:100CD0009B7900906846ADF804208DF80630FFF748
:100CE0005BFA98F80030012B09D133783BB92178B1
:100CF0003846FFF71FFB21783846FFF74DFA194BAE
:100D00001B78012BEDD13378002BEAD1164D174813
:100D10002978FFF70BFD0028E3D129781348FFF766
:100D200063FADEE700200240FCED00E0000C014029
:100D3000041000E000380140001000E0E90000204D
:100D40008C030020001001400008014000E100E099
:100D500000440040905F0100E80000201B000020DC
:100D6000740D0008DF000020E0000020EE000020ED
:0C0D7000DE00002052656164790D1A005D
:100D7C0041542B53574954434853494D3D200D532F
:100D8C00494D537769746368534D5341542B434D0C
:100D9C0047463D200D54435041542B4349504F502E
:100DAC00454E3D312C22544350222C220000000091
:100DBC000000000000000000000000000000000027
:100DCC000000000000000000000041542B4349507B
:100DDC00484541443D200D415444000000000000B2
:100DEC00000000000000000043414C4C41542B43D8
:100DFC00495052584745543D200D2B434D54493AC8
:100E0C0041542B434D47523D00000000000041541B
:100E1C002B434D47533D2200000000000000000012
:100E2C00000000000041542B43495053454E443DB3
:100E3C00310D41542B434950535249503D200D41E3
:0C0E4C00542B4E45544F50454E0D0000F5
:0400000508000139B5
:00000001FF
