:020000040800F2
:1000000000280020390100083501000835010008EA
:100010003501000835010008350100080000000026
:100020000000000000000000000000003501000892
:100030003501000800000000350100083501000806
:1000400035010008350100083501000835010008B8
:1000500035010008350100083501000835010008A8
:100060003501000835010008350100083501000898
:100070003501000835010008350100083501000888
:100080003501000835010008350100083501000878
:100090003501000835010008350100083501000868
:1000A0003501000835010008350100083501000858
:1000B000D1050008350100083501000835010008A8
:1000C0003501000835010008350100083501000838
:1000D0003501000861050008990500083501000890
:1000E0003501000835010008350100083501000818
:1000F0003501000835010008350100083501000808
:1001000035010008350100083501000835010008F7
:1001100035010008350100083501000835010008E7
:1001200035010008350100083501000835010008D7
:1001300035010008FEE70000094A0A4B0A498B42D4
:1001400006D30021094B0A4A934206D300F084BA31
:1001500052F8040F43F8040BF1E743F8041BF3E7EC
:1001600014080008000000203000002030000020AB
:10017000C8060020002213B50E4B8DF807100E495B
:100180001A701C789DF80720944206D300230B4A6E
:1001900013700B4A137002B010BD0A881206FCD50A
:1001A0001A78D2B2825C8A801A780132D2B21A707E
:1001B000E7E700BF37000020004400403C0000207B
:1001C00032000020002213B50E4B8DF807100E49A7
:1001D0001A701C789DF80720944206D300230B4A1E
:1001E00013700B4A137002B010BD0A881206FCD5BA
:1001F0001A78D2B2825C8A801A780132D2B21A702E
:10020000E7E700BF3700002000380140340000203D
:1002100033000020002273B5384B394D394C3A4E2B
:100220008DF807102A7022701A701A780B2A20D9BC
:10023000222373750D23B3750023172132482370D1
:10024000FFF7C0FF3222314B31481A702A7812B9B9
:100250000278002AFAD11A7802F0FF01002AF5D1BB
:100260002B7803F0FF0083B945222A4B9A8002B015
:1002700070BD1A7819780932C9B2415CC9B2B1545B
:100280001A780132D2B21A70CFE7234B2348197083
:1002900019782278914226D321782048FFF76AFF07
:1002A0001C4B1A881206FCD54E2200209A80DEE7ED
:1002B0009DF807101A48FFF785FF0021194A1A4BCD
:1002C0001A601A4A1160106819688842FBD31A2212
:1002D000174B9A80A3F574431A881106FCD5532254
:1002E00001209A80C3E71A78D2B2825C3E2ADFD01E
:1002F0001A780132D2B21A70CAE700BF3700002064
:10030000320000203C000020170000203E000020AA
:100310003D000020004400403F000020DF0200209C
:1003200035020020000E270738000020041000E0EE
:1003300000380140002370B5012586B0384A8DF899
:100340000710384C384913701378DBB2C65C137849
:10035000DBB2CB5C9E4202D11378022B06D9314B23
:100360001B78012B0BD0002006B070BD1378013331
:10037000DBB213701378032B08BF2570E4E700216C
:10038000CBB2C45C6E2C23D100210233DBB21170DE
:1003900011780C2922D9C15C6D292DD19DF8071047
:1003A0000233DBB2C91AC9B28DF80B109DF80B10DD
:1003B000AA29D8D800211D4D11709DF807108B4235
:1003C00021D39DF80B1003A8FFF724FF0120CBE7F2
:1003D0009DF807400131A342D2D3D5E71178C45C20
:1003E00006AD2944E4B201F80C4C11780133013117
:1003F000C9B21170DBB2CBE79DF807108B42CDD2AA
:100400000133DBB2C7E71178C45CC9B2E4B26C5403
:10041000117801330131C9B21170DBB2CDE700BFF1
:1004200037000020350000200000002035020020A9
:100430002DE9F743434B0122074698468DF80710F4
:100440001A70414A13881B06FCD59DF807303F4CB3
:100450003033938000233C4D237022789DF8073081
:100460009A4205D3002388F8003003B0BDE8F0833A
:100470002B881E06FCD53223AB802378DBB2FB5CD5
:100480002B2B04D023780133DBB22370E5E7002364
:100490002F4E33702B881806FCD53323DFF8BC9021
:1004A000AB8034222378DBB2F95C3378DBB219F805
:1004B00003309942E6D123780133DBB223703378DD
:1004C0000133DBB233702B881906FCD5AA80337850
:1004D000062BE7D12B881B06FCD53523AB80237870
:1004E000DBB2FB5C2C2B237803F10103DBB223701E
:1004F000F5D1184A08231146174813702378DBB248
:10050000FB5CDBB20D2B08D11178C9B243541178D2
:1005100011480131FFF756FEC3E70B7894F800E06D
:10052000DBB25FFA8EFE17F80EE05FFA8EFE00F87F
:1005300003E023780133DBB223700B780133DBB2A5
:100540000B70DBE73600002000440040370000203D
:100550003F00002040000020090000200300002090
:10056000084B09489A880378D2B2DBB2591CC9B249
:1005700001700649CA541222054B1A700122054B1C
:100580001A707047003801403C000020DF02002054
:100590003D00002032000020084B09489A8803786B
:1005A000D2B2DBB2591CC9B201700649CA54042246
:1005B000054B1A700122054B1A7070470044004029
:1005C00034000020410000203D00002033000020C6
:1005D0004FF08042138ADB070FD5138A23F0010303
:1005E0001B041B0C1382144A138801339BB2138023
:1005F000124AD36883F40053D360114B1A781AB1AE
:100600001A78013AD2B21A700E490A781AB10A78E9
:10061000013AD2B20A700C4A1278012A0AD10B4A66
:100620001278012A06D11B7823B9094B0948197899
:10063000FFF7A0BD704700BF300000200010014050
:100640003D0000203E000020360000203200002047
:100650003C000020DF02002012225F4B80B51A60B0
:10066000A3F580535A685A605A6842F480625A600F
:100670005A685A605A6842F002025A605A6842F454
:10068000E0125A605A6842F480325A601A6842F4A2
:1006900080321A601A689103FCD51A6842F08072A1
:1006A0001A601A689201FCD55A6802F00C02082AF6
:1006B000FAD14A4942F20C040A68494842F0807271
:1006C0000A600021474A484F11604849484D0A686E
:1006D000484E42F001020A6010229A61464A51686F
:1006E00021F440115160516841F44011516051684A
:1006F00021F4400151609A6942F005029A619A69B9
:1007000042F480429A613D4A516821F47F61516010
:10071000516841F49261516040F2712101818481FC
:10072000818989B241F020018181202134484160D2
:10073000D96941F40031D961116821F47F41116018
:10074000116841F4924111604FF49C722D490A8165
:100750008C818A8992B242F020028A8140224260D2
:10076000DA6942F00102DA614FF080431A8922F01F
:1007700007021204120C1A8140F2CF221A854CF2A1
:100780004F329A859A8992B242F001029A814FF0D3
:100790008052026001221A803B78012B09D12B780C
:1007A0003BB931781848FFF743FE31781648FFF718
:1007B000E1FC164B1B78012BEED12B78002BEBD1F3
:1007C000134C14482178FFF7B5FD0028E4D12178B7
:1007D0001048FFF7F7FCDFE700200240FCED00E0E7
:1007E00000380140041000E032000020001000E05A
:1007F0003D0000203C0000200010014000080140A6
:1008000000E100E000440040DF020020330000204F
:0808100034000020410000202B
:10081800534D532B434D54493A41542B434D475262
:100828003D00000000000041542B434D47533D223A
:1008380000000000000000000000000000000000B0
:0400000508000139B5
:00000001FF
