:020000040800F2
:1000000000280020390100083501000835010008EA
:100010003501000835010008350100080000000026
:100020000000000000000000000000003501000892
:100030003501000800000000350100083501000806
:1000400035010008350100083501000835010008B8
:1000500035010008350100083501000835010008A8
:100060003501000835010008350100083501000898
:100070003501000835010008350100083501000888
:100080003501000835010008350100083501000878
:100090003501000835010008350100083501000868
:1000A0003501000835010008350100083501000858
:1000B000C9090008350100083501000835010008AC
:1000C0003501000835010008350100083501000838
:1000D0003501000859090008910900083501000898
:1000E0003501000835010008350100083501000818
:1000F0003501000835010008350100083501000808
:1001000035010008350100083501000835010008F7
:1001100035010008350100083501000835010008E7
:1001200035010008350100083501000835010008D7
:1001300035010008FEE70000094A0A4B0A498B42D4
:1001400006D30021094B0A4A934206D300F088BC2B
:1001500052F8040F43F8040BF1E743F8041BF3E7EC
:10016000E00C000800000020DC000020DC00002083
:100170007407002045F6C05300215843044A054B3C
:1001800018601160106819688842FBD3704700BF7F
:10019000041000E0E4000020002213B50E4B8DF89F
:1001A00007100E491A701C789DF80720944206D358
:1001B00000230B4A13700B4A137002B010BD0A885B
:1001C0001206FCD51A78D2B2825C8A801A78013283
:1001D000D2B21A70E7E700BFE200002000440040FE
:1001E000E8000020DE000020F8B506460C46254851
:1001F0000B21FFF7D1FF41F28830FFF7BBFF002250
:100200001427214B214D1A70214B2A701A70214A54
:100210001978C9B2715C0A2907F1010114D12220B1
:10022000D0552C20C9B25054002018701878C0B294
:10023000205C0A2816D10D235354002315482B7037
:10024000BDE8F840FFF7A8BF18780E28E7D818785F
:10025000C0B2305CC0B2D0551878CFB20130C0B255
:100260001870D5E718780428E5D81878C0B2205C53
:10027000C0B25054187801310130C0B21870C9B200
:10028000D4E700BFCF000020DE000020E8000020FF
:10029000E20000202800002037B58DF80720FFF786
:1002A000A3FF0D212648FFF777FF00210A20254BE9
:1002B000254A197011702549254D0870187810B914
:1002C00028780028FAD1087800F0FF040028F5D13A
:1002D0001B782BB91F4B1A881006FCD5452221E04C
:1002E0001D4B1C701D4C1878117888421DD3117855
:1002F0001A48FFF751FF174B1A881206FCD5EDE795
:100300009DF807101648FFF747FF41F28830FFF7C6
:1003100031FF1A22134B9A80A3F574431A881106F1
:10032000FCD553229A8003B030BD1978C9B2615C04
:100330003E29E5D019780131C9B21970D3E700BF61
:10034000B5000020DE000020E8000020EB000020C7
:10035000E900002000440040EC0000208C03002055
:10036000E202002000380140002213B50E4B8DF848
:1003700007100E491A701C789DF80720944206D386
:1003800000230B4A13700B4A137002B010BD0A8889
:100390001206FCD51A78D2B2825C8A801A780132B1
:1003A000D2B21A70E7E700BFE20000200038014037
:1003B000E0000020DF0000200F2182B08DF8070050
:1003C0009DF807300248DBB2437302B0FFF7CCBFA1
:1003D0000000002000220E4B0E4910B41A701A784B
:1003E0000B2A08D93B23CB730D230B740948112129
:1003F00010BCFFF7B9BF1A781C780332E4B2045D71
:10040000E4B28C541A780132D2B21A70E7E700BF16
:10041000E200002067000020302370B531261B4821
:100420001B4D1C4C0E210373FFF79EFF41F28830D9
:10043000FFF7A0FE29782046FFF7AEFE16480D21F3
:10044000C672FFF791FF41F28830FFF793FE2978DB
:100450002046FFF7A1FE11480D21C672FFF784FF69
:1004600041F28830FFF786FE29782046FFF794FE98
:100470000B210B48FFF778FF41F28830FFF77AFE37
:1004800029782046BDE87040FFF786BE7C0000203A
:10049000E80000208C0300205A000020C200002049
:1004A000CF000020002273B5344B354D354C364E0D
:1004B0008DF807102A7022701A701A780B2A21D929
:1004C000222373750D23B375002317212E48237043
:1004D000FFF74AFF32222D4B2D481A702A7812B9A5
:1004E0000278002AFAD11A7802F0FF01002AF5D129
:1004F0002B789BB9274B1A881006FCD54522002083
:100500009A802FE01A7819780932C9B2415CC9B2D1
:10051000B1541A780132D2B21A70CEE71E4B1F487E
:1005200019701978227891421ED321781B48FFF761
:1005300033FE184B1A881206FCD5DFE79DF807102A
:100540001748FFF711FF41F28830FFF713FE1A2218
:10055000144B9A80A3F574431A881106FCD55322D4
:1005600001209A8002B070BD1A78D2B2825C3E2A15
:10057000E4D01A780132D2B21A70D2E7E200002039
:10058000DE000020E80000209E000020EA0000209D
:10059000E900002000440040EC0000208C03002013
:1005A000E20200200038014070B50024AA4B90B050
:1005B000AA4D8DF807101C701A78D2B2815C1A7897
:1005C000D2B2AA5C914202D11A78022A29D900211A
:1005D000A34D19701A78D2B2845C1A78D2B2AA5C90
:1005E000944202D11A78022A73D99E491A78D2B25B
:1005F000845C1A78D2B28A5C944203D11A78032AB6
:1006000040F2DF8098491A78D2B2845C1A78D2B26C
:100610008A5C944203D11A78082A40F2FE800020B6
:100620002DE01A780132D2B21A701A78032AC3D197
:100630000021CAB2865C6E2E23D10232D2B21C7067
:1006400019780C2923D9815C6D292FD19DF80710C9
:100650000232D2B2891AC9B28DF80D109DF80D1070
:10066000AA29A9D80021814D19709DF807108A4246
:1006700023D39DF80D1006A8FFF714FF012010B03A
:1006800070BD9DF807600131B242D2D3D5E7197829
:10069000865C0DF1400E7144F6B201F8286C1978B1
:1006A00001320131C9B21970D2B2C9E79DF8071001
:1006B0008A42CBD20132D2B2C5E71978845CC9B282
:1006C000E4B26C54197801320131C9B21970D2B256
:1006D000CBE71A780132D2B21A701A78032A7FF463
:1006E00079AF0024E2B2865C692E2CD10332D2B2FB
:1006F0001970845C2C2C2CD1845C702C38D1023283
:10070000D2B21970845C2C2C39D1845C6D2C45D10B
:100710009DF807400232D2B2A41AE4B28DF80E401E
:100720009DF80E40AA2C3FF655AF00214F4D197091
:100730009DF807108A4238D39DF80E2004A90CA812
:10074000FFF7AAFD9AE79DF807600134B242C9D3CA
:10075000CCE71C78865C0DF1400E7444F6B204F8C8
:10076000106C1C7801320134E4B21C70D2B2C0E7C4
:100770009DF80740A242C2D20132D2B2BCE71C7837
:10078000865C0DF1400E7444F6B204F8306C1C78AF
:1007900001320134E4B21C70D2B2B3E79DF80740D5
:1007A000A242B5D20132D2B2AFE71978845CC9B2A5
:1007B000E4B26C54197801320131C9B21970D2B265
:1007C000B6E71A780132D2B21A701A78042A7FF486
:1007D0000DAF0021CAB2845C6E2C0AD10021023216
:1007E000D2B2197019780C2909D909A8FFF7F2FDBE
:1007F00044E79DF807400131A242EBD3EEE71978B8
:10080000845C10AD2944E4B201F81C4C1978013223
:100810000131C9B21970D2B2E4E71A780132D2B20A
:100820001A701A78092A7FF4EEAE0022D3B2C15CA6
:100830002C290AD10133DBB2C35CDBB28DF80F3057
:100840009DF80F00FFF7B8FD18E79DF8071001327B
:100850008B42EBD3EEE700BFE2000020180000203F
:1008600025000020780000200F000020E202002078
:100870002DE9F7430122324B8DF807101A70002240
:10088000074698462F4C304E227022789DF807304C
:100890009A4205D3002388F8003003B0BDE8F08306
:1008A0002378DBB2FB5C2B2B04D023780133DBB243
:1008B0002370EAE70023254DDFF898902B7023780A
:1008C000DBB2FA5C2B78DBB219F803309A42ECD138
:1008D00023780133DBB223702B780133DBB22B702A
:1008E0002B78062BEBD12378DBB2FB5C2C2B237807
:1008F00003F10103DBB22370F5D10823144A3370EE
:100900002378DBB2FB5CDBB20D2B08D131781048C9
:10091000C9B2535431780131FFF726FDCFE7337860
:100920002178DBB2C9B2795CC9B2D15423780133E2
:10093000DBB2237033780133DBB23370E0E700BF02
:10094000E1000020E2000020ED000020EC0000208B
:10095000900000208A000020084B09489A880378FC
:10096000D2B2DBB2591CC9B201700649CA54122274
:10097000054B1A700122054B1A7070470038014070
:10098000E80000208C030020E9000020DE000020A9
:10099000084B09489A880378D2B2DBB2591CC9B215
:1009A00001700649CA540422054B1A700122054BF6
:1009B0001A70704700440040E0000020EE00002064
:1009C000E9000020DF0000204FF08042138ADB079F
:1009D0000FD5138A23F001031B041B0C1382174A43
:1009E000138801339BB21380154AD36883F40053F4
:1009F000D360144B1A781AB11A78013AD2B21A702D
:100A000011490A781AB10A78013AD2B20A700F492C
:100A10000A781AB10A78013AD2B20A700C4A1278EE
:100A2000012A0AD10B4A1278012A06D11B7823B970
:100A3000094B0A481978FFF7AFBB7047DC0000206C
:100A400000100140E9000020EA000020EB00002037
:100A5000E1000020DE000020E80000208C030020E0
:100A600012228A4B83B51A60A3F580535A685A60E4
:100A70005A6842F480625A605A685A605A6842F072
:100A800002025A605A6842F4E0125A605A6842F40C
:100A900080325A601A6842F480321A601A689103F0
:100AA000FCD51A6842F080721A601A689201FCD56F
:100AB0005A6802F00C02082AFAD17549754C0A6886
:100AC00042F20C0542F080720A600021724A7348BB
:100AD00011607349DFF800820A68724E42F0010229
:100AE0000A609A69704F42F010029A616F4A516829
:100AF00021F440115160516841F440115160516836
:100B000021F4400151609A6942F008029A6122681A
:100B100022F440122260226842F4401222602268CD
:100B200022F440022260226822F040722260226891
:100B300042F040722260226822F0406222609A698C
:100B400042F005029A619A6942F480429A61584AD9
:100B5000516821F47F615160516841F492615160A4
:100B600040F2712101818581818989B241F02001A2
:100B7000818120214F484160D96941F40031D96118
:100B8000116821F47F411160116841F492411160B4
:100B90004FF49C7248490A818D818A8992B242F051
:100BA00020028A8140224260DA6942F00102DA6161
:100BB0004FF080431A8922F007021204120C1A81A6
:100BC00040F2CF221A854CF24F329A859A8992B21E
:100BD00042F001029A814FF080520260012241F2FC
:100BE00088301A80FFF7C6FA23694FF47A7043F011
:100BF00020032361FFF7BEFA6369304843F0200306
:100C000063612F4CFFF7B6FA21782748FFF7C4FA43
:100C100031232C480A210372FFF7A6FB41F28830EA
:100C2000FFF7A8FA21782048FFF7B6FAFFF7F4FBA0
:100C3000254B072118689A889B7900906846ADF883
:100C400004208DF80630FFF7A7FA98F80030012B42
:100C500009D133783BB921783846FFF709FE21786E
:100C60003846FFF799FA194B1B78012BEDD13378F1
:100C7000002BEAD1164D17482978FFF795FC00287C
:100C8000E3D129781348FFF76FFBDEE7002002402D
:100C9000FCED00E0000C0140041000E000380140D1
:100CA000001000E0E90000208C030020001001404B
:100CB0000008014000E100E000440040905F0100B6
:100CC000E80000201B000020DC0C0008DF000020F2
:100CD000E0000020EE000020DE000020526561648C
:040CE000790D1A0070
:100CE40041542B53574954434853494D3D200D53C8
:100CF400494D537769746368534D5341542B434DA5
:100D040047463D200D54435041542B4349504F50C6
:100D1400454E3D312C22544350222C220000000029
:100D240000000000000000000000000000000000BF
:100D34000000000000000000000041542B43495013
:100D4400484541443D200D4154440000000000004A
:100D5400000000000000000043414C4C41542B4370
:100D6400495052584745543D200D2B434D54493A60
:100D740041542B434D47523D0000000000004154B4
:100D84002B434D47533D22000000000000000000AB
:100D9400000000000041542B43495053454E443D4C
:100DA400310D41542B434950535249503D200D417C
:0C0DB400542B4E45544F50454E0D00008E
:0400000508000139B5
:00000001FF
